{
  "contractName": "RevertLender",
  "abi": [
    {
      "constant": true,
      "inputs": [],
      "name": "INTEREST_RATE_CONVERTER",
      "outputs": [
        {
          "name": "",
          "type": "uint256"
        }
      ],
      "payable": false,
      "stateMutability": "view",
      "type": "function"
    },
    {
      "inputs": [],
      "payable": false,
      "stateMutability": "nonpayable",
      "type": "constructor"
    },
    {
      "payable": false,
      "stateMutability": "nonpayable",
      "type": "fallback"
    },
    {
      "constant": false,
      "inputs": [
        {
          "name": "currency",
          "type": "address"
        },
        {
          "name": "amount",
          "type": "uint256"
        },
        {
          "name": "interestRate",
          "type": "uint256"
        }
      ],
      "name": "updateLendingOffer",
      "outputs": [],
      "payable": true,
      "stateMutability": "payable",
      "type": "function"
    },
    {
      "constant": false,
      "inputs": [
        {
          "name": "smartContract",
          "type": "address"
        },
        {
          "name": "callData",
          "type": "bytes"
        },
        {
          "name": "borrower",
          "type": "address"
        },
        {
          "name": "principal",
          "type": "uint256"
        },
        {
          "name": "currency",
          "type": "address"
        }
      ],
      "name": "borrow",
      "outputs": [],
      "payable": false,
      "stateMutability": "nonpayable",
      "type": "function"
    },
    {
      "constant": false,
      "inputs": [
        {
          "name": "currency",
          "type": "address"
        },
        {
          "name": "amount",
          "type": "uint256"
        },
        {
          "name": "to",
          "type": "address"
        }
      ],
      "name": "withdraw",
      "outputs": [],
      "payable": false,
      "stateMutability": "nonpayable",
      "type": "function"
    }
  ],
  "bytecode": "0x608060405234801561001057600080fd5b5033600260006101000a81548173ffffffffffffffffffffffffffffffffffffffff021916908373ffffffffffffffffffffffffffffffffffffffff160217905550611352806100616000396000f3fe60806040526004361061003f5760003560e01c806369328dec1461004e578063a406e4cf146100c9578063b551712914610121578063f2de6e151461014c575b34801561004b57600080fd5b50005b34801561005a57600080fd5b506100c76004803603606081101561007157600080fd5b81019080803573ffffffffffffffffffffffffffffffffffffffff16906020019092919080359060200190929190803573ffffffffffffffffffffffffffffffffffffffff16906020019092919050505061027e565b005b61011f600480360360608110156100df57600080fd5b81019080803573ffffffffffffffffffffffffffffffffffffffff169060200190929190803590602001909291908035906020019092919050505061074c565b005b34801561012d57600080fd5b50610136610abc565b6040518082815260200191505060405180910390f35b34801561015857600080fd5b5061027c600480360360a081101561016f57600080fd5b81019080803573ffffffffffffffffffffffffffffffffffffffff169060200190929190803590602001906401000000008111156101ac57600080fd5b8201836020820111156101be57600080fd5b803590602001918460018302840111640100000000831117156101e057600080fd5b91908080601f016020809104026020016040519081016040528093929190818152602001838380828437600081840152601f19601f820116905080830192505050505050509192919290803573ffffffffffffffffffffffffffffffffffffffff16906020019092919080359060200190929190803573ffffffffffffffffffffffffffffffffffffffff169060200190929190505050610ac3565b005b338073ffffffffffffffffffffffffffffffffffffffff16600260009054906101000a900473ffffffffffffffffffffffffffffffffffffffff1673ffffffffffffffffffffffffffffffffffffffff1614610342576040517f08c379a000000000000000000000000000000000000000000000000000000000815260040180806020018281038252600a8152602001807f6e6f74206c656e6465720000000000000000000000000000000000000000000081525060200191505060405180910390fd5b600073ffffffffffffffffffffffffffffffffffffffff168473ffffffffffffffffffffffffffffffffffffffff1614156104e45760003073ffffffffffffffffffffffffffffffffffffffff1631905083811015610409576040517f08c379a000000000000000000000000000000000000000000000000000000000815260040180806020018281038252601e8152602001807f696e73756666696369656e742066756e647320746f207769746864726177000081525060200191505060405180910390fd5b8273ffffffffffffffffffffffffffffffffffffffff166108fc859081150290604051600060405180830381858888f1935050505015801561044f573d6000803e3d6000fd5b5080843073ffffffffffffffffffffffffffffffffffffffff163101146104de576040517f08c379a00000000000000000000000000000000000000000000000000000000081526004018080602001828103825260198152602001807f6574686572207769746864726177206d6973626568617665640000000000000081525060200191505060405180910390fd5b50610746565b828473ffffffffffffffffffffffffffffffffffffffff166370a08231306040518263ffffffff1660e01b8152600401808273ffffffffffffffffffffffffffffffffffffffff1673ffffffffffffffffffffffffffffffffffffffff16815260200191505060206040518083038186803b15801561056257600080fd5b505afa158015610576573d6000803e3d6000fd5b505050506040513d602081101561058c57600080fd5b81019080805190602001909291905050501015610611576040517f08c379a000000000000000000000000000000000000000000000000000000000815260040180806020018281038252601e8152602001807f696e73756666696369656e742066756e647320746f207769746864726177000081525060200191505060405180910390fd5b8373ffffffffffffffffffffffffffffffffffffffff1663a9059cbb83856040518363ffffffff1660e01b8152600401808373ffffffffffffffffffffffffffffffffffffffff1673ffffffffffffffffffffffffffffffffffffffff16815260200182815260200192505050602060405180830381600087803b15801561069857600080fd5b505af11580156106ac573d6000803e3d6000fd5b505050506040513d60208110156106c257600080fd5b8101908080519060200190929190505050610745576040517f08c379a00000000000000000000000000000000000000000000000000000000081526004018080602001828103825260188152602001807f7769746864726177207472616e73666572206661696c6564000000000000000081525060200191505060405180910390fd5b5b50505050565b338073ffffffffffffffffffffffffffffffffffffffff16600260009054906101000a900473ffffffffffffffffffffffffffffffffffffffff1673ffffffffffffffffffffffffffffffffffffffff1614610810576040517f08c379a000000000000000000000000000000000000000000000000000000000815260040180806020018281038252600a8152602001807f6e6f74206c656e6465720000000000000000000000000000000000000000000081525060200191505060405180910390fd5b8373ffffffffffffffffffffffffffffffffffffffff166323b872dd3330866040518463ffffffff1660e01b8152600401808473ffffffffffffffffffffffffffffffffffffffff1673ffffffffffffffffffffffffffffffffffffffff1681526020018373ffffffffffffffffffffffffffffffffffffffff1673ffffffffffffffffffffffffffffffffffffffff1681526020018281526020019350505050602060405180830381600087803b1580156108cb57600080fd5b505af11580156108df573d6000803e3d6000fd5b505050506040513d60208110156108f557600080fd5b8101908080519060200190929190505050610978576040517f08c379a000000000000000000000000000000000000000000000000000000000815260040180806020018281038252601f8152602001807f6e6f7420617070726f76656420746f207472616e7366657220746f6b656e730081525060200191505060405180910390fd5b8373ffffffffffffffffffffffffffffffffffffffff166370a08231336040518263ffffffff1660e01b8152600401808273ffffffffffffffffffffffffffffffffffffffff1673ffffffffffffffffffffffffffffffffffffffff16815260200191505060206040518083038186803b1580156109f557600080fd5b505afa158015610a09573d6000803e3d6000fd5b505050506040513d6020811015610a1f57600080fd5b81019080805190602001909291905050506000808673ffffffffffffffffffffffffffffffffffffffff1673ffffffffffffffffffffffffffffffffffffffff1681526020019081526020016000208190555081600160008673ffffffffffffffffffffffffffffffffffffffff1673ffffffffffffffffffffffffffffffffffffffff1681526020019081526020016000208190555050505050565b6298968081565b6000808273ffffffffffffffffffffffffffffffffffffffff1673ffffffffffffffffffffffffffffffffffffffff16815260200190815260200160002054821115610b77576040517f08c379a00000000000000000000000000000000000000000000000000000000081526004018080602001828103825260178152602001807f7072696e636970616c203e207570706572206c696d697400000000000000000081525060200191505060405180910390fd5b600080600073ffffffffffffffffffffffffffffffffffffffff168373ffffffffffffffffffffffffffffffffffffffff161415610c9e573073ffffffffffffffffffffffffffffffffffffffff163191508673ffffffffffffffffffffffffffffffffffffffff1684876040518082805190602001908083835b60208310610c155780518252602082019150602081019050602083039250610bf2565b6001836020036101000a03801982511681845116808217855250505050505090500191505060006040518083038185875af1925050503d8060008114610c77576040519150601f19603f3d011682016040523d82523d6000602084013e610c7c565b606091505b5050503073ffffffffffffffffffffffffffffffffffffffff16319050610f8b565b8273ffffffffffffffffffffffffffffffffffffffff166370a08231306040518263ffffffff1660e01b8152600401808273ffffffffffffffffffffffffffffffffffffffff1673ffffffffffffffffffffffffffffffffffffffff16815260200191505060206040518083038186803b158015610d1b57600080fd5b505afa158015610d2f573d6000803e3d6000fd5b505050506040513d6020811015610d4557600080fd5b810190808051906020019092919050505091508273ffffffffffffffffffffffffffffffffffffffff1663095ea7b388866040518363ffffffff1660e01b8152600401808373ffffffffffffffffffffffffffffffffffffffff1673ffffffffffffffffffffffffffffffffffffffff16815260200182815260200192505050602060405180830381600087803b158015610ddf57600080fd5b505af1158015610df3573d6000803e3d6000fd5b505050506040513d6020811015610e0957600080fd5b8101908080519060200190929190505050508673ffffffffffffffffffffffffffffffffffffffff16866040518082805190602001908083835b60208310610e665780518252602082019150602081019050602083039250610e43565b6001836020036101000a0380198251168184511680821785525050505050509050019150506000604051808303816000865af19150503d8060008114610ec8576040519150601f19603f3d011682016040523d82523d6000602084013e610ecd565b606091505b5050508273ffffffffffffffffffffffffffffffffffffffff166370a08231306040518263ffffffff1660e01b8152600401808273ffffffffffffffffffffffffffffffffffffffff1673ffffffffffffffffffffffffffffffffffffffff16815260200191505060206040518083038186803b158015610f4d57600080fd5b505afa158015610f61573d6000803e3d6000fd5b505050506040513d6020811015610f7757600080fd5b810190808051906020019092919050505090505b60006110166298968061100860016000600260009054906101000a900473ffffffffffffffffffffffffffffffffffffffff1673ffffffffffffffffffffffffffffffffffffffff1673ffffffffffffffffffffffffffffffffffffffff16815260200190815260200160002054886111f090919063ffffffff16565b61127690919063ffffffff16565b9050600081860190506000848403905081811161109b576040517f08c379a000000000000000000000000000000000000000000000000000000000815260040180806020018281038252600f8152602001807f64656661756c74206f6e206c6f616e000000000000000000000000000000000081525060200191505060405180910390fd5b600073ffffffffffffffffffffffffffffffffffffffff168673ffffffffffffffffffffffffffffffffffffffff16141561111e578773ffffffffffffffffffffffffffffffffffffffff166108fc8383039081150290604051600060405180830381858888f19350505050158015611118573d6000803e3d6000fd5b506111e4565b8573ffffffffffffffffffffffffffffffffffffffff1663a9059cbb898484036040518363ffffffff1660e01b8152600401808373ffffffffffffffffffffffffffffffffffffffff1673ffffffffffffffffffffffffffffffffffffffff16815260200182815260200192505050602060405180830381600087803b1580156111a757600080fd5b505af11580156111bb573d6000803e3d6000fd5b505050506040513d60208110156111d157600080fd5b8101908080519060200190929190505050505b50505050505050505050565b6000808314156112035760009050611270565b600082840290508284828161121457fe5b041461126b576040517f08c379a00000000000000000000000000000000000000000000000000000000081526004018080602001828103825260218152602001806113066021913960400191505060405180910390fd5b809150505b92915050565b60008082116112ed576040517f08c379a000000000000000000000000000000000000000000000000000000000815260040180806020018281038252601a8152602001807f536166654d6174683a206469766973696f6e206279207a65726f00000000000081525060200191505060405180910390fd5b60008284816112f857fe5b049050809150509291505056fe536166654d6174683a206d756c7469706c69636174696f6e206f766572666c6f77a165627a7a7230582007294b4b169edff0e314e5702221aa3dd336db4dc8b3b3d91b7f98e02d67ece90029",
  "source": "pragma solidity ^0.5.8;\n\nimport \"./IERC20.sol\";\nimport \"./SafeMath.sol\";\n\n\ncontract RevertLender {\n\tusing SafeMath for uint;\n\t// lender -> currency -> upper limit\n\tmapping (address => uint) upperLimits;\n  mapping (address => uint) interestRates;\n\n\tuint public constant INTEREST_RATE_CONVERTER = 10 ** 7;\n\n\taddress lender;\n\n\tmodifier onlyLender(address a) {\n\t\trequire(lender == a, \"not lender\");\n\t\t_;\n\t}\n\n\tfunction () external {}\n\n\tconstructor() public {\n\t\t\tlender = msg.sender;\n\t}\n\n\n\t// Allows the lender to update his lending preferences\n\tfunction updateLendingOffer (address currency, uint amount, uint interestRate) onlyLender(msg.sender) public payable {\n\t\trequire(IERC20(currency).transferFrom(msg.sender, address(this), amount), \"not approved to transfer tokens\");\n\t\tupperLimits[currency] = IERC20(currency).balanceOf(msg.sender);\n\t\tinterestRates[currency] = interestRate;\n  }\n\n  function borrow (address smartContract, bytes memory callData, address payable borrower, uint principal, address currency) public {\n  \trequire(principal <= upperLimits[currency], \"principal > upper limit\");\n\t\tuint startingBalance;\n\t\tuint endingBalance;\n\t\t// check if currency is ether\n\n\t\tif (currency == address(0)) {\n\t\t\t// check the starting balance\n\t\t\tstartingBalance = address(this).balance;\n\t\t\tsmartContract.call.value(principal)(callData);\n\t\t\tendingBalance = address(this).balance;\n\t\t} else {\n\t\t\t// check the starting balance\n\t\t\tstartingBalance = IERC20(currency).balanceOf(address(this));\n\t\t\tIERC20(currency).approve(smartContract, principal);\n\t\t\tsmartContract.call(callData);\n\t\t\tendingBalance = IERC20(currency).balanceOf(address(this));\n\t\t}\n\n\t\t// calculate the interest payment due\n\t\tuint totalInterest = principal.mul(interestRates[lender]).div(INTEREST_RATE_CONVERTER);\n\t\tuint totalAmountDue = principal + totalInterest;\n\n\t\tuint deltaFromTransaction = endingBalance - startingBalance;\n\t\trequire(deltaFromTransaction > totalAmountDue, \"default on loan\");\n\n\t\t//if loan was profitable\n\t\tif (currency == address(0)) {\n\t\t\tborrower.transfer(deltaFromTransaction - totalAmountDue);\n\t\t} else {\n\t\t\tIERC20(currency).transfer(borrower, deltaFromTransaction - totalAmountDue);\n\t\t}\n  }\n\n  //transfer tokens from account\n  function withdraw (address currency, uint amount, address payable to) onlyLender(msg.sender) public {\n\t\tif (currency == address(0)) {\n\t\t\tuint startingBalance = address(this).balance;\n\t\t\trequire(startingBalance >= amount, \"insufficient funds to withdraw\");\n\t\t\tto.transfer(amount);\n\t\t\trequire(address(this).balance + amount == startingBalance, \"ether withdraw misbehaved\");\n\t\t} else {\n\t\t\trequire(IERC20(currency).balanceOf(address(this)) >= amount, \"insufficient funds to withdraw\");\n\t\t\trequire(IERC20(currency).transfer(to, amount), \"withdraw transfer failed\");\n\t\t}\n  }\n}\n",
  "sourcePath": "/Users/aarondiamond-reivich/Documents/Revert_Lender/contracts/RevertLender.sol",
  "compiler": {
    "name": "solc",
    "version": "0.5.8+commit.23d335f2.Emscripten.clang"
  },
  "schemaVersion": "3.0.11",
  "updatedAt": "2019-06-26T03:55:27.245Z",
  "devdoc": {
    "methods": {}
  },
  "userdoc": {
    "methods": {}
  }
}